:100000000C9434000C9455000C9455000C9455003D
:100010000C9455000C9455000C9455000C9455000C
:100020000C9455000C9455000C9455000C945500FC
:100030000C9455000C9455000C9455000C945500EC
:100040000C9455000C9455000C9455000C945500DC
:100050000C9455000C9455000C9455000C945500CC
:100060000C9455000C94550011241FBECFEFD8E01E
:10007000DEBFCDBF0E9440000C943E00F894FFCF3D
:10008000E1ECF0E08081886080831092C50083E31A
:100090008093C40086E28093C2008091C00085FFF7
:0A00A000FCCF8FEF8093C600F8CF6D
:0400AA000C940000B2
:00000001FF
