:100000000C9437000C9461000C948F000C948F00BA
:100010000C948F000C948F000C948F000C948F0024
:100020000C948F000C948F000C948F000C948F0014
:100030000C948F000C948F000C948F000C948F0004
:100040000C948F000C948F000C948F000C948F00F4
:100050000C948F000C948F000C948F000C948F00E4
:100060000C948F000C948F0001000101800011247A
:100070001FBECFEFD8E0DEBFCDBFE8E6F0E040E046
:1000800017C0B591A59135912591059107FD0CC03B
:1000900095918591EF01F92FE82F05900D92A21708
:1000A000B307D9F7FE0104C01D92A217B307E1F709
:1000B000ED36F40731F70E947D000C945F00F89450
:0200C000FFCF70
:1000C2001F920F920FB60F9211248F93809100010D
:1000D200811107C085B1826085B981E080930001FA
:1000E20005C085B18D7F85B9109200018F910F9067
:0800F2000FBE0F901F9018953E
:1000FA008FB780688FBFE9E6F0E0808180838DB397
:10010A0081608DBB84B1826084B91AB88BB1846076
:04011A008BB9FFCFCF
:04011E000C9400003D
:00000001FF
